:100000000C94CC160C94FD160C94FD160C94FD1655
:100010000C94FD160C94FD160C94FD160C94FD1614
:100020000C94FD160C94FD160C94FD160C94FD1604
:100030000C94FD160C94FD160C94FD160C94FD16F4
:100040000C94FD160C94FD160C94FD160C94FD16E4
:100050000C94FD160C94FD160C94FD160C94FC1CCF
:100060000C94FD160C94FD160C94FD160C94FD16C4
:100070000C94FD160C94FD160C94FD160C94FD16B4
:100080000C94FD160C94FD160C94FD160C94FD16A4
:100090000C94FD160C94FD160C94FD160C94FD1694
:1000A0000C94FD160C94FD160C94FD160C94FD1684
:1000B0000C94FD160C94FD160C94FD160C94FD1674
:1000C0000C94FD160C94FD160C94FD160C94FD1664
:1000D0000C94FD160C94FD160C94FD160C94FD1654
:1000E0000C94FD160C947E180C9499180C94CA1854
:1000F0000C94C6180C9495180C94B4180C94D01841
:100100000C94B8180C94D31C0C94461D0C94A41891
:100110000C94BC180C944C1C0C94461C0C94831826
:100120000C94FA1C0C94D5190C94C2180C94A118B8
:100130000C94901C0C949D180C94D61C0C944B1889
:100140000C94AE180C94D4180C94AA180C94DA1CC5
:1001500000000A0B02090C0D0E0807030401000041
:10016000000000000000000000000000000000008F
:10017000000000000000000000000000121110004C
:10018000000000000000000000000000000000006F
:10019000000000000000B81EB442B81EB64233335F
:1001A000B9427B14BD427B94C1426666C642295C5B
:1001B000CB423333D042F6A8D4421F85D8429A9915
:1001C000DB42C3F5DD42AEC7DF423333E142295C97
:1001D000E242856BE3423D8AE4420AD7E542008071
:1001E000E74214AEE942E17AEC4229DCEF4271BD0C
:1001F000F3420000F8427B94FC4285AB0043291C8B
:100200000343CD8C054314EE074333330A43EC51CB
:100210000C438F420E438F021043EC91114314EEB6
:1002200012435C0F1443C3F51443B89E15431F05D6
:10023000164366261643F6E81543333315437B14FD
:1002400014437B94124300C0104366A60E435C4FD8
:100250000C43AEC70943291C07439A5904433D8AFE
:100260000143A470FD4229DCF742856BF242142E53
:10027000ED425238E8429A99E342295CDF425C8FB2
:10028000DB428F42D8420080D5423333D342AE475F
:10029000D14233B3CF424861CE42713DCD42713D30
:1002A000CC42EC51CB426666CA42A470C9420A579E
:1002B000C842B81EC74233B3C5427B14C442523849
:1002C000C2429A19C04214AEBD4285EBBA42AEC7D3
:1002D000B7428F42B442EC51B0425C0FAC427B94C7
:1002E000A7421F05A342C3759E421F059A4229DCFF
:1002F00095425C0F92428FC28E429A198C42000046
:100300008A42EC5188420000874200008642AE4794
:100310008542CDCC8442008084420A578442AE4755
:100320008442AE478442D72385421F858742523894
:100330008B42C3F58F42008095427B949B42C3F56C
:10034000A142856BA84271BDAE4252B8B442F628B4
:10035000BA427B14BF421F85C3421F85C7429A1908
:10036000CB42CD4CCE42D723D142F6A8D34248E16E
:10037000D542ECD1D7423D8AD9425C0FDB42C375EE
:10038000DC420AD7DD42713DDF4271BDE042856B40
:10039000E242295CE4429A99E6428F42E94248618E
:1003A000EC4266E6EF42AEC7F342C3F5F742295C82
:1003B000FC42C3750043AEC70243291C0543F668DF
:1003C000074366A609431FC50B431FC50D4348A13C
:1003D0000F435C4F11433DCA12435C0F14430A178D
:1003E00015439AD915437B541643717D16437B14EC
:1003F000164385EB1443482113437BD410436626F0
:100400000E4333330B439A190843C3F50443B8DE54
:10041000014366E6FD420080F8423D8AF342000057
:10042000EF4229DCEA423D0AE7425C8FE34266661E
:10043000E0420080DD4248E1DA421F85D84248614F
:10044000D642C375D44252B8D242D723D14214AE59
:10045000CF42EC51CE421F05CD42AEC7CB423D8AC2
:10046000CA42AE47C9420000C842B89EC642B81E42
:10047000C542C375C3427B94C142C375BF423D0AA6
:10048000BD42CD4CBA42142EB742B89EB342D7A358
:10049000AF42CD4CAB4271BDA6427B14A242C375A4
:1004A0009D42000099420AD79442B81E9142E1FA57
:1004B0008D423D8A8B4252B88942CD4C8842523897
:1004C0008742A470864266E685421F858542AE4714
:1004D00085427B14854266E6844214AE84420A5704
:1004E0008442A4F08342E17A8342E1FA8242E17AD3
:1004F00082421F058242B89E8142CD4C81427B14CC
:10050000814200008142A4708242EC5186423D0A41
:100510008C42C3F59242C3759A4285EBA14252B810
:10052000A8428F42AE421F05B2424861B342B81E94
:10053000B442B81EB6423333B9427B14BD427B94F9
:10054000C1426666C642295CCB423333D042F6A82C
:10055000D4421F85D8429A99DB42C3F5DD42AEC72B
:10056000DF423333E142295CE242856BE3423D8A5C
:10057000E4420AD7E5420080E74214AEE942E17A5C
:10058000EC4229DCEF4271BDF3420000F8427B945B
:10059000FC4285AB0043291C0343CD8C054314EE7C
:1005A000074333330A43EC510C438F420E438F020F
:1005B0001043EC91114314EE12435C0F1443C3F546
:1005C0001443B89E15431F05164366261643F6E8E6
:1005D0001543333315437B1414437B94124300C0FB
:1005E000104366A60E435C4F0C43AEC70943291C5B
:1005F00007439A5904433D8A0143A470FD4229DC14
:10060000F742856BF242142EED425238E8429A9935
:10061000E342295CDF425C8FDB428F42D84200809C
:10062000D5423333D342AE47D14233B3CF42486190
:10063000CE42713DCD42713DCC42EC51CB4266661B
:10064000CA42A470C9420A57C842B81EC74233B34F
:10065000C5427B14C4425238C2429A19C04214AEF9
:10066000BD4285EBBA42AEC7B7428F42B442EC51AD
:10067000B0425C0FAC427B94A7421F05A342C375F6
:100680009E421F059A4229DC95425C0F92428FC21E
:100690008E429A198C4200008A42EC518842000036
:1006A000874200008642AE478542CDCC844200801E
:1006B00084420A578442AE478442AE478442D723DD
:1006C00085421F85874252388B42C3F58F42008096
:1006D00095427B949B42C3F5A142856BA84271BDB4
:1006E000AE4252B8B442F628BA427B14BF421F85CC
:1006F000C3421F85C7429A19CB42CD4CCE42D72365
:10070000D142F6A8D34248E1D542ECD1D7423D8A46
:10071000D9425C0FDB42C375DC420AD7DD42713D32
:10072000DF4271BDE042856BE242295CE4429A9966
:10073000E6428F42E9424861EC4266E6EF42AEC7CC
:10074000F342C3F5F742295CFC42C3750043AEC7D0
:100750000243291C0543F668074366A609431FC5E3
:100760000B431FC50D4348A10F435C4F11433DCAC6
:1007700012435C0F14430A1715439AD915437B544F
:100780001643717D16437B14164385EB14434821B1
:1007900013437BD4104366260E4333330B439A191D
:1007A0000843C3F50443B8DE014366E6FD4200801A
:1007B000F8423D8AF3420000EF4229DCEA423D0A5A
:1007C000E7425C8FE3426666E0420080DD4248E13A
:1007D000DA421F85D8424861D642C375D44252B826
:1007E000D242D723D14214AECF42EC51CE421F05A4
:1007F000CD42AEC7CB423D8ACA42AE47C942000095
:10080000C842B89EC642B81EC542C375C3427B9457
:10081000C142C375BF423D0ABD42CD4CBA42142EFF
:10082000B742B89EB342D7A3AF42CD4CAB4271BDE5
:10083000A6427B14A242C3759D42000099420AD78A
:100840009442B81E9142E1FA8D423D8A8B4252B8E1
:100850008942CD4C884252388742A470864266E66F
:1008600085421F858542AE4785427B14854266E6F8
:10087000844214AE84420A578442A4F08342E17A4F
:100880008342E1FA8242E17A82421F058242B89EA7
:100890008142CD4C81427B14814200008142A47090
:1008A0008242EC5186423D0A8C42C3F59242C375A6
:1008B0009A4285EBA14252B8A8428F42AE421F0530
:1008C000B2424861B342C3F5154385EB154329DCB9
:1008D0001543AEC7154385AB1543AE871543486135
:1008E0001543C33515433D0A154329DC1443D7E3AB
:1008F000144333F31443CD0C1543852B15433D4A64
:100900001543F6681543008015433D8A1543CD8C89
:100910001543AE8715431F851543E17A1543666677
:100920001543AE4715434821154352F81443CDCC27
:10093000144366A614431F851443295C144348617D
:100940001443146E14431F851443F6A814437BD438
:1009500014433D0A1543AE4715437B941543F6E80F
:1009600015431F4516431F451643AE471643AE4772
:100970001643E13A164348211643CDCC11431FC517
:100980001143C3F511435C4F12437BD41243B89E0D
:1009900012438F021243291C11433D0A104348E1C0
:1009A0000E43CDCC0D435CCF0C43E1FA0B43333304
:1009B0000B43713D0A43A4300A43CD0C0A43CDCC0E
:1009C0000943527809435C0F0943CD8C084333F344
:1009D0000743E13A07430A570643C3350543482115
:1009E0000543B8DE0443F6680443E1BA034371BD2E
:1009F00002433D4A01433333FE4252B8F642A470EB
:100A0000DD429A19B6429A19B642D723B642E17A24
:100A1000E042CD4CEC42C3F5EC421F05E8423D0AF2
:100A2000DF42E1FAD242E17AC542ECD1B64248E176
:100A3000B6423D0AB742AE47B7427B94B742A4F0F4
:100A4000B742CD4CB84214AEB8421F05B942295C3A
:100A5000B94214AEB742E17AB7423D0AB742D72352
:100A6000B742EC51B742E17AB742D7A3B74252B886
:100A7000B74252B8B742D7A3B742856BB742A4700A
:100A8000B742E17AB742B89EB742ECD1B7429A1961
:100A9000B842A470B842ECD1B842CD4CB942E1FAA8
:100AA000B942A4F0BA4229DCBA429A99BA42523801
:100AB000BA42CDCCB9424861B942C3F5B8423D8A89
:100AC000B842D723B84271BDB742856BB742A47014
:100AD000B7420080B7427B94B742F6A8B74252B8FB
:100AE000B74271BDB742F6A8B7421F85B742713D04
:100AF000B74214AEB74271BDB7420000B842A4700D
:100B0000B942AE47B9425C0FB942AEC7B842856B35
:100B1000B842E1FAB742C375B742ECD1B642E1FA46
:100B2000B7426666BB423D0AC142F6A8C8429A99DE
:100B3000D14214AEDB421F85E5425C8FEC42E1FA04
:100B4000E9429A19B6429A19B6421F05B642B81E32
:100B5000B6428FC2E9427B94F542856BFC42A4B059
:100B600000435C8F0243AE070443C33505435C4F2B
:100B70000543299C05431F050643CD8C0643D72317
:100B8000074300C00743B85E084371FD0843299C32
:100B90000943713D0A43E17A0A4348E10A430A974F
:100BA0000B43CD4C0C43852B0D4333330E43EC519B
:100BB0000F43E1BA10431F8516433D8A17438F82C6
:100BC0001743A47017437B541743A43017438F0275
:100BD00017435CCF16430A971643295C16434821F6
:100BE000164366E6154366E6154385EB1543A4F008
:100BF000154352F815431F051643EC1116434821BF
:100C00001643A4301643C3351643CD0C16433D0A94
:100C1000164371FD1543F6E815433DCA154366A614
:100C20001543E17A15435C4F1543D723154371FDF6
:100C3000144329DC144348E1144385EB144371FD4C
:100C400014437B141543333315437B541543E17A26
:100C5000154366A61543ECD1154352F815437B9412
:100C6000E8423D8AE842E17AE8424861E842523887
:100C7000E8420000E84233B3E742EC51E74248E182
:100C8000E6426666E642856BE6423D8AE642F6A8A3
:100C9000E64271BDE64271BDE6421F85E6421F0590
:100CA000E642713DE5426666E4427B94E342486178
:100CB000E342AEC7E2420AD7E142B89EE042333394
:100CC000DF42D7A3DD425C0FDC42E17ADA42E1FA8F
:100CD000D8425238D742AE47D7420080D7420AD7CF
:100CE000D742EC51D842E1FAD842CDCCD942ECD12E
:100CF000DA423D0ADC42E17ADD42B81EDF425C0F97
:100D0000DF420AD7DE42C375DE4252B8DD4233B35A
:100D1000DC420A57CD421F05CD42295CCD425238F4
:100D2000CE42D7A3CF4266E6CE4266E6CC421F054E
:100D3000CA4214AEC642EC51C3428F42C0429A9995
:100D4000BD420A57BB42AE47B9421F05B342E1FA62
:100D5000B24266E6B242AEC7B242D7A3B242E17A2D
:100D6000B2420A57B2425238B2429A19B24266E6C9
:100D7000B142CD4CB2428F42B2427B14B2428FC2DA
:100D8000B1428F42B1420080B042CD4CAF42EC51F3
:100D9000AD4248E1A942142EA342AE47B242AE474B
:100DA000B242713DB24266E6A54248E1AC423333FD
:100DB000B1427B14B342295CB5423D8AB7420A571F
:100DC000B9427B94BA4233B3BA427B14BB42D7A335
:100DD000BB42295CBC42142EBD423D0ABE4266E6BF
:100DE000BE4252B8BF420080C042D7A3BC42333398
:100DF000BC423333BB42A470BB4229DCBB42CD4C66
:100E0000BC42D7A3BC4248E1BC4266E6BC4233B315
:100E1000BC42713DBC428F42BC424861BC4233B3CC
:100E2000BC423333BD420AD7BD42B89EBE423D8A62
:100E3000BF4214AEC042713DC2421F85C442CD4C78
:100E4000C44233B3C3420AD7C2420AD7C1420AD707
:100E5000C04229DCBF4266E6BE42A4F0BD42E1FAD0
:100E6000BC42713DBC42AE47BC42856BBC429A99C4
:100E7000BC42AEC7BC4266E6BC4266E6BC4271BD3F
:100E8000BC420A57BC4233B3BB42D7A3BC42ECD1ED
:100E9000BC426666BD4233B3C042EC51C042ECD1A5
:100EA000BF42D723BF42EC51BE42CD4CBD425C0F86
:100EB000BC427B94BA42E17ABA425238BA42ECD18F
:100EC000B94285EBB84271BDB7427B14B642B89EB9
:100ED000B3427B94B142E17AAA42AE47B242AE47F6
:100EE000B2420A57B2428F42B2429A19A5424861B1
:100EF000A9420080AC428FC2AE42295CB042E17A86
:100F0000B142CD4CB242295CB2425C8FB242CDCCF0
:100F1000B142A4F0B1427B14B242142EB242CD4C85
:100F2000B242C375B24214AEB2421F05B3429A191F
:100F3000B3429A99B8423333BA42F628BC425C8F26
:100F4000BE425C8FC142D723C5420AD7C942142E84
:100F5000DF420000E64266E6E542D7A3E5423333CE
:100F6000E5429A99E44248E1E3427B14E342333399
:100F7000E2428F42E142EC51E042295CDF42C3751C
:100F8000DF4252B8DF42142EE042ECD1E042D7A358
:100F9000E142D7A3E2420AD7E342713DE542ECD1F8
:100FA000E642CD4CE8428F42E8423333E8427B14BC
:100FB000E84285EBE74252B8E742E17AE742142E75
:100FC000E74248E1E6429A99E6426666E642A47044
:100FD000E6423D8AE64271BDE642E1FAE642AE47AC
:100FE000E7429A99E74285EBE7423333E842856B63
:100FF000E8429A99E84271BD0043AEC700430AD760
:10100000004385EB00438F0201435C0F01433D0A1F
:101010000143C3F50043ECD10043D7A3004348A1EB
:1010200000439A9900431F8500430A57004300007C
:10103000004348E1FE42F628FD42C3F5FA420AD7D2
:10104000F842ECD1F6424861F6429A19F5429A19F3
:10105000F3427B94F04233B3ED429A99EA42856BB6
:10106000E7428F42E442B81EE1427B94DD42F6A89B
:10107000DD4285EBDD424861DE423D0ADF4266E645
:10108000DF421F05E142856BE242D723E44252383A
:10109000E642D7A3E842C375E842A4F0E742E1FA8A
:1010A000E6426666E542CD4CE3427B14CF4266667B
:1010B000CE420080CE423333CF427B94D042D7A37E
:1010C000CF42B81ECD420080C9426666C5420A576B
:1010D000C14252B8BD42F6A8BA42E1FAB7421F85F2
:1010E000B5420080A9427B94A942ECD1A942713D4E
:1010F000AA4248E1AA4271BDAB4248E1AC42AE47C8
:10110000AE42E1FAAF4285EBB14248E1B542C3F5E8
:10111000B5425238B642D7A3B642713DB742C3F585
:10112000B742D7A3B8429A19B9420AD7B842F628AB
:10113000B742F6A8B442F6A8B44214AEB4425C0F6B
:10114000B7427B14B842F6A8B642856BB342CD4C89
:10115000B44233B3B742295CBB42142EBF42666629
:10116000BF421F05C0420000C1423333C2427B94DC
:10117000C3423D0AC5420080C642A4F0C7428F4226
:10118000C9425C0FC3420A57C24271BDC042142E0D
:10119000C142C3F5C14252B8C2426666C34229DCAD
:1011A000C342E1FAC34271BDC3421F05C3427B146F
:1011B000C342AE47C342ECD1C34233B3C442ECD1C5
:1011C000C542142EC742AEC7C8428FC2CA42856B01
:1011D000CD42713DD14248E1D04248E1CF42856BDA
:1011E000CE4271BDCC421F05CB42EC51C942F6A89C
:1011F000C7420000C642EC51C4421F05C3429A19BF
:10120000C342CD4CC3425C8FC342ECD1C342E1FA2E
:10121000C34285EBC3427B94C3420AD7C242D7A3E1
:10122000C1425C0FC3420A57C342AE47C442B89E94
:10123000C942E1FAC8427B14C842A4F0C6421F85E5
:10124000C542AEC7C34233B3C142142EBF4248E1C8
:10125000BE423D0ABE4271BDBC420A57BA423D0A77
:10126000B8420A57B54285EBB242713DB64266E6D6
:10127000B742F6A8B442F6A8B442D7A3B442F6A83F
:10128000B442F6A8B74271BDB842B81EB9420AD7F7
:10129000B8425C0FB8420000B74248E1B54271BDA8
:1012A000B542856BB5423D8AB242C375B142142E38
:1012B000B0428FC2AE42CD4CAD4266E6AB429A9987
:1012C000AA420080A942C3F5A84285EBB44200803F
:1012D000B642C3F5B84266E6BB42F6A8BF42295CF7
:1012E000C4429A99CA42D7A3E742ECD1F34233B33E
:1012F000F3420A57F3428FC2F242E1FAF1421F056C
:10130000F142A4F0EF4271BDEE42C375ED42D72326
:10131000EC42CDCCEA421F05EB42D7A3EB42F6A844
:10132000EC425C0FEE4248E1EF42B81EF242CDCCF7
:10133000F4421F05F84248E1FB42A4300043A430C8
:101340000043C33500438F420043EC510043F6682D
:101350000043008000433D8A00435C8F00437B9440
:101360000043D7A3004366A6004333B300431FC521
:1013700000439AD90043A4F000431F0501435C0FCA
:1013800001431F050143D7E30043E1BA00439A99A3
:10139000E14285EBE142856BE242B81EE342000088
:1013A000E44248E1E4429A99E542142EE642D7A38A
:1013B000E642E1FAE6420AD7E6426666E6429A99D2
:1013C000E542295CE4425C8FE2425C0FE04233B3C9
:1013D000DC428FC2D842B81ED542CDCCD1429A1938
:1013E000D142D723CF42D723CC424861C842D7232A
:1013F000C442B89EBF42C3F5BA42AE47B6423D8A28
:10140000B142713DAC42EC51AC425C8FAC42C3F591
:10141000AC423D8AAD420A57AE424861AF4233B357
:10142000B0424861B242A470B44229DCB6425C8F3B
:10143000B642D7A3B5425C0FB4427B94B142666614
:10144000AE423D8A9A426666994229DC984248E15A
:101450009842C37599427B949842D7239642D7A36A
:10146000924252B88E4248E18A42A47087425C8F11
:10147000844229DC81421F857E4252B85742F628B9
:1014800058429A9959423D0A5C42E17A5F42000013
:10149000644252B8694214AE704200007942295C3D
:1014A000814233338A4200808A4266668B4285EBF2
:1014B0008C42F6288F42F6289242C3F59542F6A850
:1014C0009A425C8FA0421F85AC4229DCB34229DCE2
:1014D000B34229DCB342856BAA420080A2428F420C
:1014E0009C425C8F9742B81E9D42C3F5A8429A1950
:1014F000B6428F42C4425C8FC442C375C54229DCE8
:10150000C6429A99C8429A99CA4233B3CC42ECD1A6
:10151000CE4266E6D0420AD7D24248E1CA42E1FA58
:10152000C942A4F0C74233B3C84285EBC942333342
:10153000CB42295CCC425238CD42F6A8CD423D8AFE
:10154000CD428FC2CC4229DCCC42F628CD421F05C9
:10155000CE42EC51CF420000D1425C0FD342C37562
:10156000D5424861D8423333DC421F85E1421F0532
:10157000E142D7A3DF42B89EDD42713DDB4271BD3F
:10158000D8428F42D642AEC7D342AE47D1428FC275
:10159000CE428FC2CC4229DCCC427B14CD42486182
:1015A000CD42B89ECD4214AECD426666CD4214AE59
:1015B000CC424861CB42A470C94248E1CA42713D65
:1015C000CB42A470CC424861D342A470D242B81E30
:1015D000D142C375CF426666CD4248E1CA4248E176
:1015E000C7428F42C442D723C34285EBBF4252B8A1
:1015F000BA4271BDB242713DAA427B94A04271BD14
:10160000974248619B421F05A54229DCB34229DC71
:10161000B34229DCB34229DCB3427B94A742CD4CD0
:10162000A1428F429C4248619742D7A39242142E16
:101630008E4233338A42CDCC894271BD8842C3F594
:10164000824233338042C3F57942C3F57242CDCC36
:101650006B428FC2644200005E4252B8574248E17A
:1016600054420AD77D42AE4780427B148342713D8B
:10167000864252388A42856B8F42333396423D0A06
:10168000B4420AD7C34271BDC342C375C34200000E
:10169000C3424861C2429A99C14233B3C042F6A8DC
:1016A000BF423D8ABE42295CBD429A19BC42A47029
:1016B000BC42856BBD421F05BF425238C1425C0F20
:1016C000C4425C8FC7428FC2CB4229DCD042333345
:1016D000D7420080DF427B94DF4248E1DF4266660A
:1016E000E042D723E1429A19E242AE47E342AE47D5
:1016F000E442F628E5425C0FE642E1FAE642C3F531
:10170000E64266E6E6428FC2E6425C8FE642713D03
:10171000E642AEC7E542B81EE542D723E4420AD707
:10172000E2420080E14233331F431F851F433D0ADD
:101730002043AEC7204352B8214300C0224333B3F5
:10174000234348A12443AE87254348612643C3353C
:10175000264314AE2543CDCC2443AE872343B8DEC5
:10176000214300C01F430A171D43F6281A435C8F0C
:101770001743E13A15431FC51443C3751343008053
:1017800011437B140F43B85E0C438F820943EC91E5
:101790000643D7A3034333B3004385EBFA42E1FA90
:1017A000FA42D723FB42A470FB420AD7FB4266668B
:1017B000FC42D723FD427B14FE42AE47FF42B85E97
:1017C0000043C3350143000001439A5900430080A0
:1017D000FE42B81EFB42CDCCF642ECD1DE428FC2B7
:1017E000DC420A57DB42856BDA42A4F0D9420000A2
:1017F000D9420A57D6420A57D2421F85CD42C375F5
:10180000C8421F85C3421F05BF425C8FBA42E1FA3E
:10181000B5429A999A42AEC79A42AE479B42B81EC9
:101820009C420A579D42C3F59E420000A14200809F
:10183000A342E17AA64285EBA9428F42B242856B70
:10184000B24266E6B24233B3B342C3F5B44233B3F5
:10185000B642A4F0B8423D8ABB429A19BE420A572A
:10186000BC421F05B4421F05B4421F05B442B81E56
:10187000BD428F42BB42B89EB5420000B1427B14CC
:10188000B64252B8BD42CD4CC4420080C94266E661
:10189000C9425C0FCB420AD7CC429A19CF42F6A874
:1018A000D1426666D442142ED74285EBD9420080DD
:1018B000DC421F05D5425238D442856BD24271BDFD
:1018C000D34214AED5428FC2D7428FC2D942E17AF9
:1018D000DB4214AEDC425238DD42C3F5DC429A19D9
:1018E000DD427B94DD428FC2DE423D8AE042CDCCB8
:1018F000E2423D8AE54252B8E842C375EC4200003C
:10190000F142CDCCF642AE47F642CDCCF4429A99A4
:10191000F24248E1EF4266E6EC428FC2E9421F859F
:10192000E642142EE342AEC7DF42C3F5DC421F0598
:10193000DD42D723DD42713DDD42F628DD428FC214
:10194000DC4248E1DB42295CDA425C0FD84248E1E4
:10195000D4421F05D5420A57D542A470D642523808
:10196000DD42A4F0DB423333DA420000D842CD4CF2
:10197000D5423D0AD242142ECE420080C942D7231E
:10198000C9427B14C8428F42C64271BDC242856BB8
:10199000BE429A99B842AE47B14271BDB4428FC2BD
:1019A000BC421F05B4421F05B4421F05B4421F05C7
:1019B000B4428FC2BE420A57BE42EC51BC4271BD16
:1019C000B9420000B742856BB4428F42B2421F0554
:1019D000B242E17AB1423D0AAB427B14A942ECD15A
:1019E000A642EC51A4428FC2A142713D9F42ECD16C
:1019F0009C429A999A42E17A9942B81EB542D7A37D
:101A0000B84233B3BD42F628C3420080C942A4F0B5
:101A1000D042C3F5D9427B14FD4200400743004049
:101A20000743E13A074333330743482107431F0580
:101A300007439AD90643B89E06437B54064352F89F
:101A400005433D8A05431FC50543F66806433373C6
:101A50000743F6E80843AEC70A437B140D43B8DEDC
:101A60000F433D4A134366A617439AD91D4333F3E8
:101A70001D4300401E433DCA1E435C8F1F43EC9133
:101A80002043ECD1214371FD22430A1724435238ED
:101A9000254348612643EC512643B81E2643CDCC4E
:101AA00025430A572543E1BA2443E1FA23435C0F57
:101AB0002343B8DE2143C37520430A171F43337302
:101AC0000A437BD40A4352780B43B85E0C431F850C
:101AD0000D430AD70E43142E10437B94114300008C
:101AE0001343856B1443E13A144385AB13438FC210
:101AF00012431F85114352F80F4348210E4314EE41
:101B00000B43299C09437B94074371BD0543F66849
:101B10000543717D0443B81E0343F6680143A4F0F6
:101B2000FE4214AEFA42F628F642856BF14200807E
:101B3000EC429A19E7421F05E742CDCCE642856B9D
:101B4000E64248E1E542F628E542AE47E442713D0F
:101B5000E3423D0AE242D7A3E0421F05DF425C8F29
:101B6000DE42142EDD420AD7DA42C375D742333340
:101B7000D34285EBC84233B3C5424861C24248E113
:101B8000BE42F628BB4266E6BA427B14BA427B9458
:101B9000B842295CB6427B94B342713DB04233B344
:101BA000AC42C375A8420A57A342AEC78042C3F5F0
:101BB0008042AE478142CDCC81427B9482420080FC
:101BC00083427B94844266E68542EC5187420AD781
:101BD0008842EC519042CD4C9042CD4C9042AE4761
:101BE00090427B949042AE47914214AE9242AE47EF
:101BF0009542F6289A42E17AAA420000B4420000D7
:101C0000B4420000B4428FC2A6429A199D4252B813
:101C10009B42856BA14248E1B042CDCCBD4248E138
:101C2000C64252B8CB42D723CC42295CCD4252386F
:101C3000CF429A99D142AE47D442142ED742B81E11
:101C4000DA425C0FDD4248E1DF42F628DE42B81E90
:101C5000DE428F42DE42CD4CE0423D0AE3425C0F61
:101C6000E642F628E9427B14EC429A99EE427B94D4
:101C7000F04266E6F1427B14F242D7A3F2420AD761
:101C8000F3427B94F5428FC2F742CD4CFA425C0F8F
:101C9000FD4285EBFF425C4F0143146E02439A59AB
:101CA0000243291C024314AE0143AE070143291C21
:101CB000004366E6FD42F628FB429A19F8420AD72D
:101CC000F44266E6F142ECD1F1425C8FF1425C0FE6
:101CD000F1423333F0420AD7EE4229DCEC42D723FB
:101CE000EA421F85E64285EBE142F628DE42142EE9
:101CF000DE42CD4CDE4233B3E0428F42DF424861E8
:101D0000DD420000DB42B81ED84233B3D442B89E55
:101D1000D04252B8CB42E17ACB427B94CA4252B80D
:101D2000C842AE47C542C3F5BE42CD4CB5423D8A1E
:101D3000A5423D0A9C42295C9F420000B44200003B
:101D4000B4420000B4420000B4420000A342C3F514
:101D50009A4248619642295C9342856B9142856B19
:101D60009042EC519042713D90420A579042AE47EA
:101D70008942856B8842A4708742AE4786423D0AFD
:101D8000854214AE8342AE478242AEC78042CDCC7C
:101D90007F4233B3A242CDCCA7423333AE42666614
:101DA000B44233B3BA42142EC14271BDC742CDCC46
:101DB000D642E1FADF42142EE042AEC7E04252B80A
:101DC000E142A4F0E242EC51E442CDCCE542AE4720
:101DD000E74252B8E8420000EA42B81EEB421F85D3
:101DE000EB4214AEEC425C8FEE42D723F1424861E5
:101DF000F4428F42F842AEC7FC427B140143527852
:101E0000044300800943D7A30943CD0C0A438FC282
:101E10000A4300C00B43AE070D439A990E43D723E4
:101E200010439A991143CD0C1343856B14435C4FB7
:101E30001443E1FA1343A470134314AE1243E1BAFE
:101E400011430A9710431F450F43C3B50D43E1FAF1
:101E50000B43EC510A43EC11014352380143717DAD
:101E60000143D7E30143A470024300400343D76317
:101E7000044371BD05431F450743B8DE084352B80C
:101E800008438F4208435C8F0743A4B00643CDCC80
:101E90000543B81E054371FD0443A47005435CCFA0
:101EA0000543CD0C0643142E06433D8A06430A170C
:101EB00007431FC50743AE8708435C4F0943CD0C5A
:101EC0000A4333B30A43EC510B4300C00C43299C33
:101ED0000C43C3350C431F850B435C8F0A433D4ABB
:101EE000094333B30743AEC705433D8A0343E1FAD1
:101EF00000434861FC428F42FC42E1FAFB42CDCCF8
:101F0000FB423D8AFC42142EFE425C4F19433D8A3F
:101F100017438FC21443AE47114348210D4348A1D4
:101F20000D4348E10E43EC911043AE471243E1BA32
:101F30001343AE8714433DCA1443E13A14433DCAE8
:101F40001243295C0A43AE470A4333F30943295C31
:101F50000943AE8708430A5707433DCA05439AD948
:101F60000343D763014314AEFC4252B8F742D72370
:101F7000F742856BF542856BF242CD4CEE4229DC8F
:101F8000E842A4F0E1428F42D9428FC2CD423D0ADD
:101F9000B9420000B4420000B4420000B4427B14D5
:101FA000BD423D0ACE423333DC421F85E9421F0564
:101FB000F242CD4CEC42D723DE42295CC94233B316
:101FC000C94214AECA423333CC423333CE42E17AF3
:101FD000D0421F05D34214AED542295CD842D72344
:101FE000DB423D0A034371BD0543CD4C0C4352789F
:101FF0000F4314EE124385EB1643852B1B43146EDF
:102000001F43F6682343CDCC26431F4529433D8A11
:10201000294300402A4348E12A431F852B437B5430
:102020002C439A592D43B89E2E439A193043F6A853
:102030003143A4F03243B8DE3243299C3243291C99
:102040003243EC5131431F453043AE072F43E1BAD1
:102050002D43C3752C438F422B431F452943B81E84
:102060002943B89E284385AB2743291C26435CCFD0
:10207000234366A620435C8F1C431F8517430080C3
:1020800011433D0A0343EC1102435C8FFD42B81E2D
:10209000DC420080DA42D7A3D8426666D642CDCC75
:1020A000D34266E6D0426666CD42295CC9423333EC
:1020B000CB42A470D0428FC2D742856BE2425238E5
:1020C000EB420080F142E17AED423333DE423333BA
:1020D000C8420000B4420000B4420000B442000014
:1020E000B442A470C042EC51CC42142ED642295CBA
:1020F000DF42C3F5E7425C0FF04252B8F7420A579D
:10210000F842A470FA421F85FA429A19FE427B14E3
:102110000143852B0343E13A0543F628074366E66E
:102120000843295C0A43C3F50A4371FD12430AD7E9
:102130001543C3B5184371FD1A431F851C430A5745
:102140001D43CDCC1C4371BDF7425238E94200809B
:10215000E942295CEA4271BDEB42F6A8ED425C0F10
:10216000F04248E1F2421F05F6424861F94229DC9B
:10217000FC42852B0043852B0043E13A0043295C58
:1021800000433D8A0043E1BA004385EB00437B14E2
:102190000143291C014314EE00430A970043F6A8AB
:1021A000004329DC0043142E014385AB01437B54DB
:1021B000024333330343A4700443F6E80543146E2B
:1021C0000743B8DE084300C00843B85E084300C0B8
:1021D000074385EB064366E605431FC504430A979C
:1021E00003433D8A0243C3B501431F0501437B946A
:1021F000E14285EBE142E17AE2425238E342D72301
:10220000E4423333E542295CE6425C8FE74271BD2C
:10221000E842ECD1E9420AD7E9420AD7E94248E16B
:10222000E942C3F5E942F628EA423D8AEA42142E21
:10223000EB429A19EC42F628ED42713DEE42B89E0F
:10224000EE428FC2EF42F6A8F1428F42F442666638
:10225000F742A4F0FA4214AEFE42713D01439A19CE
:10226000034329DC044333B30443713D0443337314
:1022700003430A570243D7E30043D723FE428FC2EA
:10228000F9421F85F442856BEE42A470E742856BEC
:10229000E742295CE742F628E74233B3E642B89EBC
:1022A000E542856BDF420AD7DA42713DD5420080B4
:1022B000CE42F6A8C642ECD1C742F628CB42713DC9
:1022C000D0426666D64248E1DC42D723E3423D8AEB
:1022D000E842C3F5EC4285EBEF4285EBEC4229DCAA
:1022E000EC425C8FEC423D0AEC42CD4CEB42713D3E
:1022F000EA420AD7E8427B14E7428FC2E4420AD797
:10230000E1427B94DF42CD4CDF42A470DE4285EB9C
:10231000DC42ECD1DA423D0AD842C375D44285EBA7
:10232000CF427B94C9425C8FBA420000B4420000A5
:10233000B4420000B442D7A3BD42CDCCC6427B1408
:10234000CB4285EBCD426666CE42D723CA42E17AC4
:10235000C542D7A3C142ECD1C142EC51C2429A1945
:10236000C3429A19C4428F42C5421F85C64248E102
:10237000C742CD4CC9428FC2CA4285EBC742F6A8BC
:10238000C7425238C742B89EC842ECD1CA42F6A8EA
:10239000CD42F628D142EC51D5421F05DA429A19B6
:1023A000DF42295CE4423D8AE4427B14E5420000BE
:1023B000E6423333E7423D8AE842AEC7E94252B8CB
:1023C000EA42E1FAEA42D723EA420AD7E7427B141B
:1023D000E84252B8E8429A99E942A470EA42A4F06D
:1023E000EA4248E1EA42B81EEA4252B8E84233B350
:1023F000E642295CE442C3F5E34252B8E24233B319
:10240000E042A4F0DD423D8ADA42D7A3D642A4706E
:10241000D242B81ECE4248E1C94285EBC7421F05F1
:10242000C842295CC8423333CB42A470CA42C37548
:10243000C942CD4CC842A4F0C642856BC54214AE19
:10244000C342D7A3C14266E6C142F6A8C24252388F
:10245000C4420080C642D7A3C9420A57CD42B89EA3
:10246000CE427B94CB420A57C4420000B4420000E3
:10247000B4420000B4420000B442C3F5C04252B8B6
:10248000C8428F42CE42B81ED3427B94D74252B844
:10249000DB427B94DF4248E1DF4285EBE0428FC2C2
:1024A000E0420080E242C375E442A470E6420A576B
:1024B000E8427B14EA42D7A3EB4285EBEC42B89E9C
:1024C000ED423D0AF242142EF342713DF342295C83
:1024D000F242713DF0425238EC420A57E6427B1418
:1024E000E04248E1D042CD4CD1421F85D24200802B
:1024F000D442D723D7420A57DA42A4F0DD42ECD1C6
:10250000E14248E1E542C3F5E9420000EE420AD764
:10251000ED420A57ED423D8AEC426666EB42C3F556
:10252000E9425238E8425238E6421F05E44229DCCB
:10253000E142856BE042B89EE0423333E142B81E8F
:10254000E242AE47E342D7A3E4425C0FE642856B2A
:10255000E7423D8AE842295CE942ECD1E94271BD9B
:10256000E9420080E9427B14E942E17AE84214AE94
:10257000E74252B8E6427B94E542AE47E44285EB3F
:10258000E242C375E14285EB1F42F6281E42333317
:102590001B42B81E174248E1114266660B421F8576
:1025A0000342AE47F5410AD7E1413333CD41C3F58C
:1025B000CE410000D4417B14DC41CDCCE6419A9958
:1025C000F3410AD7004285EB07423D0A0F42AE476E
:1025D0001742EC5120429A991F421F851D42A47058
:1025E0001A4214AE1642A470124248E10D42F62877
:1025F0000942EC5104425C8FFE41E17AF0418FC206
:10260000F1411F85F54114AEFB4100000242333316
:10261000074233330D4214AE1342AE471A421F85B0
:1026200020428FC22542C3F52742EC512E42EC5185
:1026300038421F85444248E1514252B81B4214AE11
:102640002B42E17A3D42E17A4F4214AE6042A470DF
:102650005F42C3F55B4200005642713D4D423D0A68
:1026600041420AD731423D0A1F4233330A42D7A3BF
:10267000E8413333D14185EBD1416666D44152B84C
:10268000D84148E1DE41A470E741D7A3F241A470EC
:1026900000425C8F0942333315425C8F234214AEF3
:1026A00024420000284248E12D4266663642AE4789
:1026B00042421F8552420000694252388542E17A07
:1026C000A9420000B4420000B4420000B442CD4C24
:1026D000A24248618742A4706F42CDCC60425C8FB9
:1026E00067424861834200809942142EB542B81E69
:1026F000B54285EBB442F6A8B442CD4CB442C3F522
:10270000B3427B94B342EC51B3423333B342B81E6D
:10271000B34229DC91427B148E42EC5185425C0F1E
:102720008342E17A814266668042AE4780429A994E
:102730008142CDCC84425C0F8A42CD4C9142AE475F
:1027400091420A5791421F059242D72393420A575A
:10275000944248619542000096421F059642295CCA
:10276000954248619442A4709442D7A394423D0A92
:1027700095423D8A9542E1FA95427B149642D7A351
:1027800095420080944214AE9242CD4C9142F6A8FC
:1027900090420AD78E425C0F8C4233B388428F42FC
:1027A00085420A5782421F858042CD4C80427B146D
:1027B000824229DC91425238934285EB97421F05B1
:1027C000B342F628B3425238B342EC51B3423D8A89
:1027D000B3420AD7B342856BB442142EB54248E1E6
:1027E000B2425238AC42AE47A24248619342295CA1
:1027F000854233336F42C3F55F4233336C42AEC719
:102800008F420000B4420000B4420000B442000015
:10281000B4425C8F9B4200808742E17A71420000A3
:102820005942EC51444252B832425C8F2342EC513F
:102830002242295C1E4266661942A470124252B8B6
:102840000A4285EB0242CDCCF64152B8E841F62867
:10285000DC413333D1418FC2D1410AD7BD41D7A327
:10286000BE41C3F5C4416666D241F628E64148E15F
:10287000FC4152B80B42A47066425C8F7242A47055
:1028800072423D0A7242713D714285EB6F4248E1EE
:102890006D423D0A6B4266666742C3F5624248E19B
:1028A0005D42AE475842F6285842D7A3574252B825
:1028B00056425C8F5542AE4754427B1453423333E9
:1028C0005242B81E524214AE534252B858425C8F24
:1028D00057427B145442713D4E423D0A4642A47019
:1028E0003B425C8F2E4200001F42EC510D425C8F38
:1028F000F4413333CD4148E1CE418FC2D3419A995F
:10290000DB41713DE6413333F34100000142C3F541
:1029100008423D0A11420AD718421F852042C3F5DA
:102920007B4214AE7C4285EB7D428FC27F42D7232F
:1029300081429A99824266E6834233338542A4708B
:1029400086427B9487428F4287420A578642AEC7AF
:1029500084427B948242AE477F4252B877423333FF
:102960006E4285EB6342713D5B420AD753428FC290
:10297000524285EB4F4233334C429A99484285EBA1
:10298000454252B84442EC514542CDCC4742B81E74
:102990004C42CDCC5142EC51514285EB4F428FC25B
:1029A0004D423D0A4B42333348429A994542CDCC81
:1029B0004342EC514342CDCC444252B8484285EBAD
:1029C0004742E17A454214AE41427B143D420AD768
:1029D000384214AE4742F6284C42333352425C8FA1
:1029E0005A428FC26542713D65423D0A6442E17AB6
:1029F0006342F62865421F856A42295C74427B94D3
:102A000081429A998B42A470984285EBC542C3F5E6
:102A1000C542EC51C64266E6C6429A99C74200805A
:102A2000C842C375C942EC51CA42F628CB42CDCC4C
:102A3000CB42EC51C542A470C54233B3C542B81E67
:102A4000C642EC51C642B81EC6429A19C542F6A803
:102A5000C24252B8BD42D723B04233B3AD423D0A61
:102A6000AE420000AF42856BB7427B14C542B81E30
:102A7000CD42CD4CCD42713DC04229DCB342CD4C5C
:102A8000A942CDCC9F42295C9F42B81E9E42713D17
:102A90009C421F059A42D7A397420A579542523843
:102AA0009342295C914266E68F423D0A9C421F0593
:102AB0009D4248E19E4200009D428F429A42CD4C89
:102AC0009742C37594428F429242856B91420AD7D6
:102AD00092423D8A974214AE96425C0F944214AEE5
:102AE0008F4214AE8942D7238242666672428FC2F9
:102AF0005D429A9946420AD72D42333316420AD78D
:102B000017423D0A1D42713D26426666334200006F
:102B10004442F62857423D0A6C42A4F080425238A3
:102B20008C423D8A97423D0A974214AE954266E632
:102B30009342AE479242A47091420AD79142D7A3E2
:102B4000934229DC964248619B423D0A9C427B9419
:102B50009B42C3F599425C8F8F42142E9042142EF3
:102B60009142B89E9242B89E94420A579742A4F06E
:102B70009A42CDCC9F42E17AA0427B94A24248E1A6
:102B8000A54229DCAB42F6A8B242B81EBC42295C81
:102B9000CA428FC2CD42B89EC04233B3AD429A9969
:102BA000AD428F42AD4252B8AC420080B542A4F073
:102BB000BC425C8FC1420080C4421F05C642AE4782
:102BC000C642EC51C5428F42C542F6A8C44200003D
:102BD000CC428FC2CB428F42CB429A99CA4233B386
:102BE000C9427B94C842AE47C74285EBC5427B943D
:102BF000C542D7A39F423D0A974200808C42A470F1
:102C000081421F856C420000584214AE4642295C46
:102C10003142CDCC3F42D7A33F42B81E3F42E17A7A
:102C20003E42C3F53D42C3F53D4252B83E42E17AD1
:102C30004042295C4342A47047425C8F4C42A470DE
:102C40004C427B144C425C8F4B42B81E4B420000FE
:102C50004B425C8F4B42295C4D42EC5151427B14FC
:102C6000594214AE68423D0A6942F6286A42713DF3
:102C70006C42295C6F4214AE734266667942B81E9C
:102C80007F42EC5182421F0585427B948742E17A64
:102C90008742713D8742CDCC8642F62886420A574C
:102CA0008542AE4784421F058342295C8142C3F5B9
:102CB0007E4252B87B4200002200250028002B00F3
:102CC0002E003100340002010000050108010B0153
:102CD00000002100240027002A002D0030003300CE
:102CE00001010000040107010A01050505050705AA
:102CF00008080808020202020A0A08080404040478
:102D000001010101010101010303030303030303A3
:102D1000040707070C0C0C0C0C0C0C0C0202020232
:102D200006060606060606060B0B0B0B0B0B0B0B1B
:102D300001021020200808102040102040800201CD
:102D400002010804020101020408102040808040B2
:102D500020100804020180040201804020100804B1
:102D6000020108040201010204081020408001024F
:102D700004081020408000010101230101153D05D8
:102D80000D7B561B23B87FFCFAEDA0E52BE9CC4464
:102D900006D4FF13085D461D11241FBECFEFD1E2FC
:102DA000DEBFCDBF00E00CBF12E0A0E0B2E0E6EF76
:102DB000FAE400E00BBF02C007900D92A432B10705
:102DC000D9F724E0A4E2B2E001C01D92A733B20714
:102DD000E1F716E1CCECD6E100E006C0219701094D
:102DE000802FFE010E943725CB3CD10780E00807E9
:102DF000A9F70E94F31E0C9479250C94000090E032
:102E0000FC01E05DF24D24918651934DFC018491CB
:102E1000882399F090E0880F991FFC01E053F34D4F
:102E2000A591B491FC01EA54F34D859194918FB72B
:102E3000F894EC91E22BEC938FBF0895FC0185810F
:102E4000811128C180E494E09783868380EC92E12D
:102E50009187808769306CF466300CF099C06230DD
:102E60000CF418C164300CF451C0653009F44EC044
:102E700008956B300CF40EC16E3034F084ED860F83
:102E8000833008F4C7C00895608384E890E0948399
:102E9000838388E890E06B3031F08AE890E06C3012
:102EA00011F08CE890E09283818382E0809380002F
:102EB0008AE18093810080E49CE99093870080936D
:102EC00086008681978120853185820F931F969594
:102ED000879590938D0080938C0090938B008093C6
:102EE0008A0090938900809388002091840030911B
:102EF000850080918600909187008217930708F0E3
:102F0000C9C010928500109284000895608384E9FE
:102F100090E09483838388E990E0653031F08AE91A
:102F200090E0623011F08CE990E09283818382E03E
:102F3000809390008AE18093910080E49CE99093D3
:102F40009700809396008681978120853185820F36
:102F5000931F9695879590939D0080939C009093E6
:102F60009B0080939A009093990080939800209101
:102F7000940030919500809196009091970082176F
:102F8000930708F087C0109295001092940008955E
:102F9000608384EA90E09483838388EA90E06630DB
:102FA00031F08AEA90E0673011F08CEA90E0928389
:102FB000818382E08093A0008AE18093A10080E475
:102FC0009CE99093A7008093A60086819781208535
:102FD0003185820F931F969587959093AD008093CE
:102FE000AC009093AB008093AA009093A9008093CB
:102FF000A8002091A4003091A5008091A600909196
:10300000A7008217930708F045C01092A500109200
:10301000A4000895608384E291E09483838388E22E
:1030200091E06E3231F08AE291E06D3211F08CE283
:1030300091E09283818382E0809320018AE18093F2
:10304000210180E49CE990932701809326018681E9
:10305000978120853185820F931F96958795909350
:103060002D0180932C0190932B0180932A01909342
:10307000290180932801209124013091250180911C
:103080002601909127018217930720F410922501C1
:1030900010922401089580E991E00895282F30E0EE
:1030A000F901E05BFE4F9491F901E05DF24D44912E
:1030B0002651334DF9012491222309F435C0992377
:1030C00011F191509231F8F4E92FF0E08827E4599A
:1030D000F74E8F4F0C9437259D18A1187E18951820
:1030E00099188318A418AA18AE18B418B818BC18E0
:1030F000C218C6188318CA18D018D4188091800036
:103100008F7780938000E22FF0E0EE0FFF1FEA54EC
:10311000F34DA591B4918FB7F894EC91611148C02B
:1031200040954E234C938FBF0895809180008F7DF2
:10313000E8CF80918000877FE4CF84B58F7784BD0E
:10314000E2CF84B58F7DFBCF8091B0008F778093E5
:10315000B000D9CF8091B0008F7DF9CF80919000E1
:103160008F7780939000CFCF809190008F7DF9CFA3
:1031700080919000877FF5CF8091A0008F7780931A
:10318000A000C1CF8091A0008F7DF9CF8091A000D9
:10319000877FF5CF809120018F7780932001B3CF77
:1031A000809120018F7DF9CF80912001877FF5CF1D
:1031B0004E2BB8CF3FB7F894809127029091280208
:1031C000A0912902B0912A0226B5A89B05C02F3FE5
:1031D00019F00196A11DB11D3FBFBA2FA92F982F3D
:1031E0008827BC01CD01620F711D811D911D42E038
:1031F000660F771F881F991F4A95D1F708950F937F
:103200001F93CF93DF93EC01888187FD40C0DB01E2
:10321000AA0FBB1F603282E07807B8F40E811F81CD
:1032200028853985201B310BDB01653B710510F0CA
:10323000A4EBB0E00E943F2524EB30E040E050E0FA
:103240000E941825D801A20FB31FE981FA81B1832A
:10325000A0838D8181111BC0AB81BC812D913C91DC
:1032600011978081918128173907C0F388818830B0
:1032700009F450C0D4F48530C1F174F48230D9F12E
:103280008330F1F188810E94FF1681E08D83DF9108
:10329000CF911F910F9108958630B1F1873091F74A
:1032A0008091A00090E2892732C08D30D1F04CF49B
:1032B0008B3089F08C3031F78091800090E2892743
:1032C0000DC08D3281F18E3241F18C32D9F6809170
:1032D000200198E02BC0809180008058809380006E
:1032E000D1CF8091800098E0EACF80919000805803
:1032F00080939000C7CF8091900090E28927F8CF0B
:103300008091900098E0FACF8091A000805880933F
:10331000A000B8CF9091A000C6CF80912001805826
:1033200080932001AFCF8091200190E28927F8CFD0
:103330000F931F93CF93DF93209125022F5F322F9E
:1033400037703093250220FF2BC020E831FD206428
:10335000347009F02062205FFC01EC01239600E04C
:1033600011E06485662329F070E0C8010E94E22420
:103370006F5F6187322F369F030E30E0311D1124BD
:10338000311110C01682662311F0615061873196A9
:10339000EC17FD0731F7DF91CF911F910F91089541
:1033A00020E0D4CF31503683EECF6F927F928F9250
:1033B0009F92AF92BF92CF92DF92EF92FF920F93C4
:1033C0001F93CF93DF933C01EB010E94DA18F301C6
:1033D00027853089621B730B6A307105B0F3F8944E
:1033E000E881F981509105015260409105014D7FBE
:1033F00040930501EA848F812E2D281B822F2F8375
:10340000DF84AA81BB816D857C85FE846F5F7F5FD1
:10341000F3949E813885B984AB84118120E0C32E5A
:10342000022F322F3181112788943111380F08F47F
:103430003FEF8195889460FD130F1795889461FD87
:10344000130F1795889462FD130F1795889463FDE9
:10345000130F1795889464FD130F1795889465FDD5
:10346000130F1795889466FD130F1795889467FDC1
:10347000130F17958894232F6111212F8E0D122F72
:10348000002C50930501002C17FF4093050130815B
:103490002227889400C000C0409305013111390FE4
:1034A00000C050930501002C16FF4093050108F45D
:1034B0003FEF9195889400C000C04093050170FDD6
:1034C000230F00C050930501002C15FF4093050108
:1034D0002795889471FD230F00C000C0409305011B
:1034E0002795889400C050930501002C14FF409349
:1034F000050172FD230F2795889400C000C04093FA
:10350000050173FD230F00C050930501002C13FF2C
:10351000409305012795889474FD230F00C000C0D7
:10352000409305012795889400C050930501002C15
:1035300012FF4093050175FD230F2795889400C065
:1035400000C04093050176FD230F00C05093050194
:10355000002C11FF409305012795889477FD230FD8
:1035600000C000C0409305012795889400C0509387
:103570000501002C10FF40930501132F7111122F2C
:103580009B0D00C000C04093050100C000C05093D7
:103590000501002C17FF40930501328122278894F2
:1035A00000C000C04093050131113C0D00C0509394
:1035B0000501002C16FF4093050108F43FEFED0DC7
:1035C000F11D00C000C040930501F0FC230F00C0B6
:1035D00050930501002C15FF409305012795889411
:1035E000F1FC230F00C000C040930501279588948B
:1035F00000C050930501002C14FF40930501F2FC1C
:10360000230F2795889400C000C040930501F3FC68
:10361000230F00C050930501002C13FF40930501B8
:1036200027958894F4FC230F00C000C04093050147
:103630002795889400C050930501002C12FF4093F9
:103640000501F5FC230F2795889400C000C0409326
:103650000501F6FC230F00C050930501002C11FF5B
:103660004093050127958894F7FC230F00C000C004
:10367000409305012795889400C050930501002CC4
:1036800010FF40930501132FF110122FC19400C0B9
:1036900000C040930501CA0C00C0002C50930501E6
:1036A000002C17FF4093050131812227889400C028
:1036B00000C0409305013111380F00C0509305013F
:1036C000002C16FF4093050108F43FEF8195889484
:1036D00000C000C04093050160FD230F00C050935F
:1036E0000501002C15FF409305012795889461FD85
:1036F000230F00C000C0409305012795889400C0A7
:1037000050930501002C14FF4093050162FD230F27
:103710002795889400C000C04093050163FD230FE6
:1037200000C050930501002C13FF4093050127951D
:10373000889464FD230F00C000C0409305012795C5
:10374000889400C050930501002C12FF409305019E
:1037500065FD230F2795889400C000C040930501A4
:1037600066FD230F00C050930501002C11FF40930C
:1037700005012795889467FD230F00C000C0409382
:1037800005012795889400C050930501002C10FF77
:1037900040930501132F6111122F8E0D00C000C040
:1037A00040930501119709F06CCE4A815B8120EEB0
:1037B00031E0DA010E944E25DC01CB01F4E0B69540
:1037C000A79597958795FA95D1F730E020E0B90154
:1037D000EAE94E9F040E611D5E9F600D711D11246C
:1037E000650F711D860F971FA11DB11D893E43E016
:1037F0009407A105B10508F434C0885E9340A1097F
:10380000B10942E0B695A795979587954A95D1F766
:1038100047E0849F080E211D949F200D311D112427
:10382000290F311D6091240270E0860F971F820FCF
:10383000931F409146025091470260914802709157
:103840004902292F3327420F531F611D711D4093D9
:103850004602509347026093480270934902809356
:10386000240278940E94DA18F301708B6787DF9145
:10387000CF911F910F91FF90EF90DF90CF90BF906D
:10388000AF909F908F907F906F900895E4E0F1E06B
:103890008081826080830895EF92FF920F931F933F
:1038A000CF93DF93CDB7DEB762970FB6F894DEBF44
:1038B0000FBECDBF7C01DC011C968C917A8369839D
:1038C0005C834B835E834D830D871E872F878130FA
:1038D00001F5CE0101960E94981983E0888B1A8A1F
:1038E000198AD701ED91FC910484F585E02DBE0184
:1038F0006F5F7F4FC701199562960FB6F894DEBFD0
:103900000FBECDBFDF91CF911F910F91FF90EF9030
:1039100008951C861B861A86198618861F82DDCF9D
:10392000EF92FF920F931F93CF93DF93CDB7DEB744
:1039300062970FB6F894DEBF0FBECDBF7C01DC01ED
:103940001C968C917A8369835C834B835E834D8361
:103950000D871E872F878130F9F4CE0101960E94D2
:103960009819188A1A8A198AD701ED91FC91048452
:10397000F585E02DBE016F5F7F4FC70119956296F7
:103980000FB6F894DEBF0FBECDBFDF91CF911F9170
:103990000F91FF90EF9008951C861B861A8619865A
:1039A00018861F82DECF90E080E00895FC018585B7
:1039B000968508950F931F93CF93DF9300D0CDB7D3
:1039C000DEB7AB0119821A821B82DC01ED91FC91FA
:1039D0000190F081E02D00E010E020E0BE016F5F7B
:1039E0007F4F19950F900F900F90DF91CF911F91FE
:1039F0000F9108950E9474251F920F920FB60F9297
:103A000011242F933F938F939F93AF93BF938091F4
:103A1000460290914702A0914802B091490230912C
:103A2000260223E0230F2D3758F50196A11DB11D65
:103A3000209326028093460290934702A093480267
:103A4000B09349028091270290912802A091290207
:103A5000B0912A020196A11DB11D80932702909377
:103A60002802A0932902B0932A02BF91AF919F919F
:103A70008F913F912F910F900FBE0F901F9018952F
:103A800026E8230F0296A11DB11DD2CF2F923F929F
:103A90004F925F926F927F928F929F92AF92BF925E
:103AA000CF92DF92EF92FF920F931F93CF93DF930A
:103AB00000D000D000D01F92CDB7DEB78FEF80933B
:103AC0008203109284031092830310928E0310924B
:103AD0008D034FEF5FEFBA014093890350938A0340
:103AE00060938B0370938C0380932D0410923204A7
:103AF00040E252E0509334044093330420E639E02E
:103B000030933604209335048093230410922804C4
:103B100050932A044093290430932C0420932B04BF
:103B20008093190410921E045093200440931F04A4
:103B3000309322042093210480930F0410921404E4
:103B400050931604409315043093180420931704DF
:103B50008093050410920A0450930C0440930B04C4
:103B600030930E0420930D048093FB031092000405
:103B700050930204409301043093040420930304FF
:103B80008093F1031092F6035093F8034093F703E8
:103B90003093FA032093F9038093E7031092EC0328
:103BA0005093EE034093ED033093F0032093EF0323
:103BB0008093DD031092E2035093E4034093E30308
:103BC0003093E6032093E5038093D3031092D80348
:103BD0005093DA034093D9033093DC032093DB0343
:103BE0008093C9031092CE035093D0034093CF0328
:103BF0003093D2032093D1038093BF031092C40368
:103C00005093C6034093C5033093C8032093C70362
:103C100086E79DE2512C412CFC014591559165911F
:103C200074912FEF421A520A04964F3FA9F7E6E724
:103C3000FDE285919591A591B491AD019A833FEFF5
:103C4000398306E7602E0DE2702E90E080E064E09C
:103C5000660E711CF30185909590A590B4908E82AC
:103C6000B4E095958795BA95E1F7282FE82CF12CCB
:103C7000F886EF82C82CC2941FE0C12230E14316BF
:103C8000510488F4E9806E2D0E2C000C770B681718
:103C9000790744F03E2D3F3029F02E2D2F5FC216BC
:103CA00008F4C22EC982D12C30E02B2CEA2D892DAC
:103CB000C216D30650F4252EE42F8A81A5019A82DC
:103CC000622F932F9601C62ED92EFA80EF2CF12C5D
:103CD000FB82EA8290E08E199F099695982F88279B
:103CE00097958795E42EF12CFD82EC82F0E0EE1999
:103CF000FF09F695FE2FEE27F795E795E52EF12CB7
:103D0000312C2E183F083694322C222437942794D5
:103D1000A601421B530B5A874987452B21F441E0EA
:103D200050E05A87498769857A850E94E2248B0191
:103D3000CF0169857A850E94E224FB01C101698572
:103D40007A850E94E224000F111FDF01AA0FBB1F1A
:103D5000660F771F8A819B81982F88279B838A8390
:103D60008C819D81582F44279E2D8827F901EE0FC5
:103D7000FF1FE20FF31FE157FC4FC216D30690F06E
:103D8000EB80E08251839283EA80FB80E00EF11E9B
:103D9000FB82EA824A0F5B1F860F971F2F5F3F4F00
:103DA0003396EBCF8F8198859A82A5012E812F3F84
:103DB00009F04DCF2A960FB6F894DEBF0FBECDBFE7
:103DC000DF91CF911F910F91FF90EF90DF90CF90F7
:103DD000BF90AF909F908F907F906F905F904F902B
:103DE0003F902F900895CF93DF9300D0CDB7DEB7EB
:103DF000789484B5826084BD84B5816084BD85B5C6
:103E0000826085BD85B5816085BD80916E008160D1
:103E100080936E0010928100809181008260809377
:103E20008100809181008160809381008091800079
:103E30008160809380008091B10084608093B100A4
:103E40008091B00081608093B00080919100826089
:103E50008093910080919100816080939100809186
:103E600090008160809390008091A1008260809397
:103E7000A1008091A10081608093A1008091A000A9
:103E800081608093A0008091210182608093210154
:103E900080912101816080932101809120018160C6
:103EA0008093200180917A00846080937A008091D1
:103EB0007A00826080937A0080917A00816080939A
:103EC0007A0080917A00806880937A001092C10015
:103ED0002FB7F8948091460290914702A091480232
:103EE000B09149022FBF80937E0390937F03A093EC
:103EF0008003B093810380913E02811145C01092EE
:103F0000300210922F028FEF80933302809334029D
:103F10008093350280933602809337028093380273
:103F200081E08093390210923B0210923A02109283
:103F30003202109231028091500290915102892BED
:103F400031F48DE292E09093510280935002E0911F
:103F50002B02F0912C02309721F08DE292E09583B4
:103F600084838DE292E090932C0280932B02109236
:103F70003D0210923C0286E192E090932E028093E3
:103F80002D0281E080933E02809104018260809343
:103F9000040186E592E09093300280932F028AE438
:103FA00090E090933B0280933A0280918503909138
:103FB0008603A0918703B0918803843C29E092078F
:103FC000A105B10520F484EC99E0A0E0B0E0809375
:103FD000850390938603A0938703B093880384E1BD
:103FE0008093820380910002909101022EE733E0DA
:103FF00044E3C42E43E0D42E65E078E0869FA00120
:10400000879F500D969F500D1124CA01875E994CD1
:10401000492F480FD6014D936D012A173B0771F7C1
:10402000909301028093000286E10E94FF1687E1CF
:104030000E94FF1688E10E94FF1660E086E10E9460
:104040004E1860E087E10E944E1860E088E10E940F
:104050004E1862E08DE294E00E941E1763E083E256
:1040600094E00E941E1765E089E194E00E941E170B
:1040700066E08FE094E00E941E1767E085E094E020
:104080000E941E1768E08BEF93E00E941E176BE002
:1040900081EF93E00E941E176CE087EE93E00E9490
:1040A0001E176DE08DED93E00E941E176CE283ED0C
:1040B00093E00E941E176DE289EC93E00E941E17A8
:1040C0006EE28FEB93E00E941E176FE370E08DE2CB
:1040D00094E00E94FF1868E270E083E294E00E949E
:1040E000FF1861E770E089E194E00E94FF1862E840
:1040F00070E08FE094E00E94FF186AE870E085E0CD
:1041000094E00E94FF1866E970E08BEF93E00E9454
:10411000FF1861E770E081EF93E00E94FF1862E80A
:1041200070E087EE93E00E94FF1864E770E08DED89
:1041300093E00E94FF1866E970E083ED93E00E942F
:10414000FF186AE570E089EC93E00E94FF186AE5C9
:1041500070E08FEB93E00E94FF1861E086E10E941F
:104160004E1861E087E10E944E1861E088E10E94EC
:104170004E180E94DA182B013C0190ED892E97E031
:10418000992EA12CB12C0E94DA18641975098609A0
:104190009709683E734081059105A8F3B1E08B1A39
:1041A0009108A108B108E8EE4E0EE3E05E1E611C26
:1041B000711C81149104A104B10429F78FB7F894FC
:1041C0004090460250904702609048027090490229
:1041D0008FBF80917E0390917F03A0918003B09167
:1041E0008103A3019201281B390B4A0B5B0BCA0107
:1041F000B9010E94C5234B015C0120E038E543E191
:1042000056E40E94A92487FD0FC040927E0350927D
:104210007F03609280037092810320E030E0232BC3
:1042200069F20E940000CACF20E030E044E252E48C
:10423000C501B4010E941B230E9400240E948D230B
:104240008B01000F111F000F111FF801E25EF64DE8
:1042500065917591859194910E948D238DE294E0F2
:104260000E94FF18F801EA57FA4D65917591859102
:1042700094910E948D2383E294E00E94FF18F8013C
:10428000E251FE4D65917591859194910E948D2327
:1042900089E194E00E94FF18F801EA5AF14E659115
:1042A0007591859194910E948D238FE094E00E94F6
:1042B000FF18F801E254F54E65917591859194913E
:1042C0000E948D2385E094E00E94FF18F801EA5DCA
:1042D000F84E65917591859194910E948D238BEF95
:1042E00093E00E94FF18F801E257FC4E659175912A
:1042F000859194910E948D2381EF93E00E94FF1895
:10430000F801EA50F04F65917591859194910E9462
:104310008D2387EE93E00E94FF18F801E25AF34FD5
:1043200065917591859194910E948D238DED93E017
:104330000E94FF18F801EA53F74F65917591859136
:1043400094910E948D2383ED93E00E94FF18F80161
:10435000E25DFA4F65917591859194910E948D234C
:1043600089EC93E00E94FF18F801EA56FE4F659130
:104370007591859194910E948D238FEB93E00E941B
:10438000FF18A6E5B2E084E393E0FC012191CF01A0
:10439000622F62956F702F70E62FEE0FE60FF0E040
:1043A000E157FC4F508141813281222309F428C01A
:1043B00033966F3011F4EFE8F3E02295207F722FEF
:1043C0007095579F050E50E0511D6081629F060E4B
:1043D00060E0611D560F479F040E40E0411D618162
:1043E000629F060E60E0611D460F379F030E30E0AE
:1043F000311D6281629F060E60E0611D360F11243F
:104400005C9311964C93119712963C9312971396C6
:104410008C159D0509F0B9CFE4E3F3E02191DF01AC
:1044200011972F5F2C938E179F07C1F7B0908203CF
:104430008091850390918603A0918703B0918803B2
:10444000892B8A2B8B2BD9F00E94DA18009152020B
:10445000109153022091540230915502601B710B50
:10446000820B930B009185031091860320918703A3
:10447000309188036017710782079307C8F20E9482
:10448000DA1860935202709353028093540290930F
:104490005502E0918D03F0918E03309759F04091D1
:1044A000890350918A0360918B0370918C038B2D4B
:1044B0001995B82EE0905002F09051024B2C512CDF
:1044C000712C612CE114F10409F45CC0D7011C9635
:1044D000AC901C978091830390918403843691055E
:1044E00010F41C961C92D701ED91FC918280938070
:1044F00019821A821B82BB2091F187010A5F1F4F2C
:10450000F0E0E0E0D8012D918D01222321F11296F7
:104510003C90332001F130E050E040E02F5F3F4F0E
:104520004F4F5F4FC301B2010E94D2249B01AC01E7
:10453000832D90E0B0E0A0E0BC01CD016F5F7F4F24
:104540008F4F9F4F0E94D224A1E0B0E0AC0FBD1F5F
:10455000AE0FBF1F8C933196E330F10599F60981B8
:104560001A812B81F7014585568562817381C701C8
:10457000F4011995D7011C96AC921C971496ED90F6
:10458000FC90A0CF80914E0290914F029C012F5F32
:104590003F4F30934F0220934E0249970CF43DCE8B
:1045A0008FB7F8942091460230914702409148021B
:1045B000509149028FBF80914A0290914B02A09185
:1045C0004C02B0914D02281B390B4A0B5B0B21F4B6
:1045D00021E030E040E050E080914E0290914F02A7
:1045E000E8EEF3E08E9FB0018F9F700D9E9F700DDF
:1045F0001124072E000C880B990B0E94F62430938F
:1046000084032093830310924F0210924E022FB71F
:10461000F8948091460290914702A0914802B0918F
:1046200049022FBF80934A0290934B02A0934C0201
:10463000B0934D02F2CD0E942F230C9457240E9478
:10464000502458F00E94492440F029F45F3F29F09B
:104650000C94172451110C94A3240C9446240E940A
:10466000682468F39923B1F3552391F3951B550BF7
:10467000BB27AA2762177307840738F09F5F5F4F35
:10468000220F331F441FAA1FA9F335D00E2E3AF074
:10469000E0E832D091505040E695001CCAF72BD08C
:1046A000FE2F29D0660F771F881FBB1F26173707DD
:1046B0004807AB07B0E809F0BB0B802DBF01FF270F
:1046C00093585F4F3AF09E3F510578F00C941724B1
:1046D0000C94A3245F3FE4F3983ED4F3869577953A
:1046E0006795B795F7959F5FC9F7880F911D9695C8
:1046F000879597F90895E1E0660F771F881FBB1F24
:10470000621773078407BA0720F0621B730B840BD0
:10471000BA0BEE1F88F7E09508950E9494236894E1
:10472000B1110C94A32408950E94702488F09F571F
:1047300098F0B92F9927B751B0F0E1F0660F771FC5
:10474000881F991F1AF0BA95C9F714C0B13091F0BB
:104750000E94A224B1E008950C94A224672F782F20
:104760008827B85F39F0B93FCCF386957795679580
:10477000B395D9F73EF490958095709561957F4FEC
:104780008F4F9F4F0895E89409C097FB3EF4909592
:104790008095709561957F4F8F4F9F4F9923A9F01A
:1047A000F92F96E9BB279395F695879577956795A9
:1047B000B795F111F8CFFAF4BB0F11F460FF1BC0ED
:1047C0006F5F7F4F8F4F9F4F16C0882311F096E980
:1047D00011C0772321F09EE8872F762F05C066232E
:1047E00071F096E8862F70E060E02AF09A95660FE7
:1047F000771F881FDAF7880F9695879597F90895A0
:104800000E948A2490F09F3748F4911116F00C947E
:10481000A32460E070E080E89FEB089526F41B1667
:10482000611D711D811D0C941D240C94382497F971
:104830009F6780E870E060E00895882371F4772333
:1048400021F09850872B762F07C0662311F4992703
:104850000DC09051862B70E060E02AF09A95660FAB
:10486000771F881FDAF7880F9695879597F908952F
:104870009F3F31F0915020F4879577956795B795D4
:10488000880F911D9695879597F908959FEF80EC75
:10489000089500240A9416161706180609060895A6
:1048A00000240A9412161306140605060895092E0C
:1048B0000394000C11F4882352F0BB0F40F4BF2B7B
:1048C00011F460FF04C06F5F7F4F8F4F9F4F0895BB
:1048D00057FD9058440F551F59F05F3F71F04795B1
:1048E000880F97FB991F61F09F3F79F08795089596
:1048F000121613061406551FF2CF4695F1DF08C0B5
:10490000161617061806991FF1CF869571056105D1
:10491000089408950E947024A0F0BEE7B91788F4A7
:10492000BB279F3860F41616B11D672F782F882794
:10493000985FF7CF869577956795B11D93959639D2
:10494000C8F30895E894BB2766277727CB0197F92A
:1049500008950E94AE2408F48FEF0895990F00087F
:10496000550FAA0BE0E8FEEF16161706E807F90741
:10497000C0F012161306E407F50798F0621B730BDC
:10498000840B950B39F40A2661F0232B242B252B5D
:1049900021F408950A2609F4A140A6958FEF811D00
:1049A000811D0895DB018F939F930E945525BF9130
:1049B000AF91A29F800D911DA39F900DB29F900D6E
:1049C0001124089597FB072E16F4009407D077FD65
:1049D00009D00E94602507FC05D03EF49095819592
:1049E0009F4F0895709561957F4F0895A1E21A2E0B
:1049F000AA1BBB1BFD010DC0AA1FBB1FEE1FFF1F83
:104A0000A217B307E407F50720F0A21BB30BE40BD2
:104A1000F50B661F771F881F991F1A9469F7609519
:104A20007095809590959B01AC01BD01CF010895D3
:104A3000052E97FB1EF400940E942F2557FD07D0EA
:104A40000E94F62407FC03D04EF40C942F255095B9
:104A50004095309521953F4F4F4F5F4F089590956A
:104A60008095709561957F4F8F4F9F4F0895EE0F02
:104A7000FF1F881F8BBF0790F691E02D1994A29F0E
:104A8000B001B39FC001A39F700D811D1124911D22
:104A9000B29F700D811D1124911D08950E943F2524
:104AA000B7FF0895821B930B08950E943F25A59F91
:104AB000900DB49F900DA49F800D911D1124089519
:104AC000AA1BBB1B51E107C0AA1FBB1FA617B70734
:104AD00010F0A61BB70B881F991F5A95A9F7809550
:104AE0009095BC01CD01089581E090E0F8940C947C
:064AF0007925F894FFCFC8
:104AF600390500000000FA1CFA1CFA1CDA1CD61C48
:104B0600D31C00000000901C4C1C461CDA1CD61C52
:044B16004B18D5194A
:00000001FF
