:100000000C9428010C9459010C9459010C94590139
:100010000C9459010C9459010C9459010C945901F8
:100020000C9459010C9459010C9459010C945901E8
:100030000C9459010C9459010C9459010C945901D8
:100040000C9459010C9459010C9459010C945901C8
:100050000C9459010C9459010C9459010C94850588
:100060000C9459010C944F050C9425050C945901DE
:100070000C9459010C9459010C9459010C94590198
:100080000C9459010C9459010C9459010C94590188
:100090000C9459010C9459010C9459010C94590178
:1000A0000C9459010C9459010C9459010C94590168
:1000B0000C9459010C9459010C9459010C94590158
:1000C0000C9459010C9459010C9459010C94590148
:1000D0000C9459010C9459010C9459010C94590138
:1000E0000C9459010C9441040C94A7020C94050340
:1000F0000C94CF050C944F040C942A040C948A039E
:100100000C942E040C94F7020C943B040C943D03C5
:100110000C9453040C9431040C9461040C94490421
:100120000C9410040C940B040C9426040C94D4022C
:100130000C9457040C9437040C94E3020C9445047B
:100140000C9422040C945D0400000A0B02090C0DAF
:100150000E0807030401000000000000000000007A
:10016000000000000000000000000000000000008F
:10017000000000001211100000000000000000004C
:10018000000000000000000000000000000000006F
:100190002200250028002B002E003100340002012F
:1001A0000000050108010B010000210024002700C8
:1001B0002A002D0030003300010100000401070176
:1001C0000A010505050507050808080802020202DC
:1001D0000A0A0808040404040101010101010101E3
:1001E0000303030303030303040707070C0C0C0CAE
:1001F0000C0C0C0C02020202060606060606060697
:100200000B0B0B0B0B0B0B0B010210202008081023
:100210002040102040800201020108040201010276
:10022000040810204080804020100804020180044F
:1002300002018040201008040201080402010102AA
:100240000408102040800102040810204080CF05DF
:1002500011241FBECFEFD1E2DEBFCDBF00E00CBF47
:1002600012E0A0E0B2E0E0E5F1E100E00BBF02C087
:1002700007900D92A231B107D9F723E0A2E1B2E0D5
:1002800001C01D92A833B207E1F711E0C8E2D1E046
:1002900000E006C021970109802FFE010E946D0831
:1002A000C732D10780E00807A9F70E9461060C94C5
:1002B000A6080C94000090E0FC01E85FFD4F24913B
:1002C0008E539E4FFC018491882399F090E0880F13
:1002D000991FFC01E855FE4FA591B491FC01E2572E
:1002E000FE4F859194918FB7F894EC91E22BEC93AB
:1002F0008FBF0895FC018581811128C180E494E0BD
:100300009783868380EC92E19187808769306CF4D3
:1003100066300CF099C062300CF418C164300CF4F3
:1003200051C0653009F44EC008956B300CF40EC115
:100330006E3034F084ED860F833008F4C7C0089522
:10034000608384E890E09483838388E890E06B3056
:1003500031F08AE890E06C3011F08CE890E0928304
:10036000818382E0809380008AE18093810080E431
:100370009CE99093870080938600868197812085F1
:100380003185820F931F9695879590938D0080936A
:100390008C0090938B0080938A00909389008093C7
:1003A0008800209184003091850080918600909192
:1003B00087008217930708F0C9C010928500109239
:1003C00084000895608384E990E09483838388E9BE
:1003D00090E0653031F08AE990E0623011F08CE90C
:1003E00090E09283818382E0809390008AE1809301
:1003F000910080E49CE99093970080939600868119
:10040000978120853185820F931F969587959093CC
:100410009D0080939C0090939B0080939A00909302
:1004200099008093980020919400309195008091DC
:100430009600909197008217930708F087C010925A
:100440009500109294000895608384EA90E094836C
:10045000838388EA90E0663031F08AEA90E0673082
:1004600011F08CEA90E09283818382E08093A00077
:100470008AE18093A10080E49CE99093A700809397
:10048000A6008681978120853185820F931F9695DE
:1004900087959093AD008093AC009093AB008093D0
:1004A000AA009093A9008093A8002091A400309105
:1004B000A5008091A6009091A7008217930708F0ED
:1004C00045C01092A5001092A4000895608384E2B4
:1004D00091E09483838388E291E06E3231F08AE286
:1004E00091E06D3211F08CE291E09283818382E0A1
:1004F000809320018AE18093210180E49CE990931C
:100500002701809326018681978120853185820F7E
:10051000931F9695879590932D0180932C0190932E
:100520002B0180932A019093290180932801209127
:100530002401309125018091260190912701821795
:10054000930720F410922501109224010895AF9290
:10055000BF92CF92DF92EF92FF920F931F93CF93B0
:10056000DF936C017B018B01040F151FEB015E0112
:10057000AE18BF08C017D10759F06991D601ED91A7
:10058000FC910190F081E02DC6011995892B79F736
:10059000C501DF91CF911F910F91FF90EF90DF90F8
:1005A000CF90BF90AF900895FC01538D448D252FBF
:1005B00030E0842F90E0821B930B541710F0CF96FD
:1005C000089501970895FC01918D828D981761F02F
:1005D000A28DAE0FBF2FB11D5D968C91928D9F5F46
:1005E0009F73928F90E008958FEF9FEF0895FC0125
:1005F000918D828D981731F0828DE80FF11D858DD8
:1006000090E008958FEF9FEF0895FC01918D228D6A
:10061000892F90E0805C9F4F821B91098F739927EF
:10062000089583E292E00E94050321E0892B09F4FA
:1006300020E0822F0895FC01A48DA80FB92FB11DD1
:10064000A35ABF4F2C91848D90E001968F73992708
:10065000848FA689B7892C93A089B1898C918370E6
:1006600080648C93938D848D981306C00288F389DF
:10067000E02D80818F7D80830895EF92FF920F930C
:100680001F93CF93DF93EC0181E0888F9B8D8C8D3E
:1006900098131AC0E889F989808185FF15C09FB732
:1006A000F894EE89FF896083E889F98980818370F5
:1006B000806480839FBF81E090E0DF91CF911F91A4
:1006C0000F91FF90EF900895F62E0B8D10E00F5FC5
:1006D0001F4F0F731127E02E8C8D8E110CC00FB69B
:1006E00007FCFACFE889F989808185FFF5CFCE0133
:1006F0000E941B03F1CFEB8DEC0FFD2FF11DE35A90
:10070000FF4FF0829FB7F8940B8FEA89FB898081B5
:100710008062CFCFCF93DF93EC01888D8823B9F02F
:10072000AA89BB89E889F9898C9185FD03C08081FC
:1007300086FD0DC00FB607FCF7CF8C9185FFF2CF79
:10074000808185FFEDCFCE010E941B03E9CFDF91B1
:10075000CF91089580E090E0892B29F00E94110349
:1007600081110E94000080E090E0892B49F080E038
:1007700090E0892B29F00E94000081110E94000066
:1007800080E090E0892B49F080E090E0892B29F00F
:100790000E94000081110E94000080E090E0892BFF
:1007A00049F080E090E0892B29F00E94000081113F
:1007B0000C9400000895282F30E0F901E85BFE4F0B
:1007C0009491F901E85FFD4F44912E533E4FF9019A
:1007D0002491222309F435C0992311F191509231CB
:1007E000F8F4E92FF0E08827E750FC4F8F4F0C9486
:1007F0006D082A042E040B0422042604100431047C
:1008000037043B044104450449044F0453041004D5
:1008100057045D046104809180008F77809380008D
:10082000E22FF0E0EE0FFF1FE257FE4FA591B491CB
:100830008FB7F894EC91611148C040954E234C93CA
:100840008FBF0895809180008F7DE8CF80918000D8
:10085000877FE4CF84B58F7784BDE2CF84B58F7D69
:10086000FBCF8091B0008F778093B000D9CF80917B
:10087000B0008F7DF9CF809190008F7780939000AA
:10088000CFCF809190008F7DF9CF80919000877FAE
:10089000F5CF8091A0008F778093A000C1CF809189
:1008A000A0008F7DF9CF8091A000877FF5CF809148
:1008B00020018F7780932001B3CF809120018F7D1D
:1008C000F9CF80912001877FF5CF4E2BB8CF3FB76E
:1008D000F8948091170290911802A0911902B0919A
:1008E0001A0226B5A89B05C02F3F19F00196A11D3D
:1008F000B11D3FBFBA2FA92F982F8827BC01CD016A
:10090000620F711D811D911D42E0660F771F881FC8
:10091000991F4A95D1F708950F931F93CF93DF93B3
:10092000EC01888187FD40C0DB01AA0FBB1F60324C
:1009300082E07807B8F40E811F8128853985201B55
:10094000310BDB01653B710510F0A4EBB0E00E94B8
:10095000750824EB30E040E050E00E944E08D801DA
:10096000A20FB31FE981FA81B183A0838D81811128
:100970001BC0AB81BC812D913C91119780819181ED
:1009800028173907C0F38881883009F450C0D4F49F
:100990008530C1F174F48230D9F18330F1F188816E
:1009A0000E945B0181E08D83DF91CF911F910F91B8
:1009B00008958630B1F1873091F78091A00090E2E0
:1009C000892732C08D30D1F04CF48B3089F08C30D7
:1009D00031F78091800090E289270DC08D3281F13E
:1009E0008E3241F18C32D9F68091200198E02BC0F3
:1009F00080918000805880938000D1CF80918000CA
:100A000098E0EACF80919000805880939000C7CF03
:100A10008091900090E28927F8CF8091900098E033
:100A2000FACF8091A00080588093A000B8CF909119
:100A3000A000C6CF80912001805880932001AFCFC5
:100A40008091200190E28927F8CF1F920F920FB674
:100A50000F9211240BB60F922F933F934F935F93F6
:100A60006F937F938F939F93AF93BF93EF93FF9376
:100A700083E292E00E941B03FF91EF91BF91AF913F
:100A80009F918F917F916F915F914F913F912F91A6
:100A90000F900BBE0F900FBE0F901F9018951F92D6
:100AA0000F920FB60F9211240BB60F922F938F93C4
:100AB0009F93EF93FF93E0913302F0913402808192
:100AC000E0913902F0913A0282FD1DC0908180913F
:100AD0003C028F5F8F7320913D02821741F0E091BD
:100AE0003C02F0E0ED5DFD4F958F80933C02FF915D
:100AF000EF919F918F912F910F900BBE0F900FBE92
:100B00000F901F9018958081F2CF1F920F920FB611
:100B10000F9211242F933F938F939F93AF93BF9383
:100B20008091130290911402A0911502B0911602C7
:100B30003091120223E0230F2D3758F50196A11DA5
:100B4000B11D209312028093130290931402A0937C
:100B50001502B09316028091170290911802A0918D
:100B60001902B0911A020196A11DB11D80931702BE
:100B700090931802A0931902B0931A02BF91AF91FB
:100B80009F918F913F912F910F900FBE0F901F90CB
:100B9000189526E8230F0296A11DB11DD2CFE3E2DE
:100BA000F2E01382128288EE93E0A0E0B0E084834A
:100BB0009583A683B78384E092E09183808385EC5C
:100BC00090E09587848784EC90E09787868780EC17
:100BD00090E0918B808B81EC90E0938B828B82EC08
:100BE00090E0958B848B86EC90E0978B868B118EB2
:100BF000128E138E148EEEE2F3E04FEF40831582D7
:100C000020E232E03783268380E699E0918780876F
:100C1000E4E2F3E04083158237832683918780875F
:100C2000EAE1F3E04083158237832683918780874A
:100C3000E0E1F3E040831582378326839187808744
:100C4000E6E0F3E04083158237832683918780872F
:100C5000ECEFF2E04083158237832683918780870B
:100C6000E2EFF2E040831582378326839187808705
:100C7000E8EEF2E0408315823783268391878087F0
:100C8000EEEDF2E0408315823783268391878087DB
:100C9000E4EDF2E0408315823783268391878087D5
:100CA000EAECF2E0408315823783268391878087C0
:100CB000E0ECF2E0408315823783268391878087BA
:100CC0000895789484B5826084BD84B5816084BDC4
:100CD00085B5826085BD85B5816085BD80916E00DA
:100CE000816080936E00109281008091810082600B
:100CF0008093810080918100816080938100809148
:100D000080008160809380008091B1008460809336
:100D1000B1008091B00081608093B000809191001B
:100D20008260809391008091910081608093910016
:100D3000809190008160809390008091A1008260FA
:100D40008093A1008091A10081608093A100809197
:100D5000A00081608093A000809121018260809337
:100D600021018091210181608093210180912001E6
:100D700081608093200180917A00846080937A0062
:100D800080917A00826080937A0080917A008160FD
:100D900080937A0080917A00806880937A00109224
:100DA000C100E0913302F091340282E08083E0914F
:100DB0002F02F09130021082E0913102F091320264
:100DC00080E1808310923B02E0913702F09138027B
:100DD00086E08083E0913502F09136028081806167
:100DE0008083E0913502F0913602808188608083B3
:100DF000E0913502F0913602808180688083E09135
:100E00003502F091360280818F7D808383E292E00B
:100E10000E948A0386E10E945B0187E10E945B01D8
:100E200088E10E945B0160E086E10E94DB0360E0F4
:100E300087E10E94DB0360E088E10E94DB0362E05F
:100E40008EE293E00E947A0163E084E293E00E94E4
:100E50007A0165E08AE193E00E947A0166E080E130
:100E600093E00E947A0167E086E093E00E947A01B5
:100E700068E08CEF92E00E947A016BE082EF92E0F2
:100E80000E947A016CE088EE92E00E947A016DE0A7
:100E90008EED92E00E947A016CE284ED92E00E9475
:100EA0007A016DE28AEC92E00E947A016EE280ECB7
:100EB00092E00E947A0167E370E08EE293E00E9484
:100EC0008C0468E170E084E293E00E948C0468E79F
:100ED00070E08AE193E00E948C0468E870E080E1B1
:100EE00093E00E948C0465E870E086E093E00E9445
:100EF0008C0464E970E08CEF92E00E948C0467E659
:100F000070E082EF92E00E948C046AE770E088EE65
:100F100092E00E948C0461E770E08EED92E00E9406
:100F20008C0465E970E084ED92E00E948C046AE52F
:100F300070E08AEC92E00E948C046AE570E080EC3C
:100F400092E00E948C0461E086E10E94DB0361E094
:100F500087E10E94DB0361E088E10E94DB030E94DD
:100F600067044B015C0180EDC82E87E0D82EE12C90
:100F7000F12C0E946704681979098A099B09683E67
:100F8000734081059105A8F321E0C21AD108E10858
:100F9000F10888EE880E83E0981EA11CB11CC114D4
:100FA000D104E104F10429F710921C0280911B0284
:100FB0008E33B9F083E292E00E940503892BB1F3EE
:100FC00083E292E00E94E30280931B0290911C0254
:100FD000E92FF0E0E25EFD4F80839F5F90931C025B
:100FE000E9CF10921B0280911E028C3389F480910C
:100FF00022028E3369F46091210260931D02809178
:101000001F02813041F470E08EE293E00E948C0474
:101010000E94AA03C9CF823021F470E084E293E0F9
:10102000F5CF833021F470E08AE193E0EFCF843094
:1010300021F470E080E193E0E9CF853021F470E0A5
:1010400086E093E0E3CF863021F470E08CEF92E00D
:10105000DDCF873021F470E082EF92E0D7CF883087
:1010600021F470E088EE92E0D1CF893021F470E075
:101070008EED92E0CBCF8A3021F470E084ED92E0E7
:10108000C5CF8B3021F470E08AEC92E0BFCF8C307A
:1010900009F0BECF70E080EC92E0B8CF052E97FB50
:1010A0001EF400940E94650857FD07D00E94840832
:1010B00007FC03D04EF40C9465085095409530958C
:1010C00021953F4F4F4F5F4F0895909580957095B4
:1010D00061957F4F8F4F9F4F0895EE0FFF1F881F21
:1010E0008BBF0790F691E02D1994A29FB001B39F9A
:1010F000C001A39F700D811D1124911DB29F700D21
:10110000811D1124911D0895A1E21A2EAA1BBB1B5B
:10111000FD010DC0AA1FBB1FEE1FFF1FA217B307C3
:10112000E407F50720F0A21BB30BE40BF50B661FD9
:10113000771F881F991F1A9469F76095709580959D
:1011400090959B01AC01BD01CF010895F894FFCFAC
:10115000000000003D03A702D4028A030503E30256
:02116000F70294
:00000001FF
